{
  "contractName": "GithubHint",
  "abi": [
    {
      "constant": true,
      "inputs": [
        {
          "name": "",
          "type": "bytes32"
        }
      ],
      "name": "entries",
      "outputs": [
        {
          "name": "accountSlashRepo",
          "type": "string"
        },
        {
          "name": "commit",
          "type": "bytes20"
        },
        {
          "name": "owner",
          "type": "address"
        }
      ],
      "payable": false,
      "stateMutability": "view",
      "type": "function"
    },
    {
      "constant": false,
      "inputs": [
        {
          "name": "_content",
          "type": "bytes32"
        },
        {
          "name": "_accountSlashRepo",
          "type": "string"
        },
        {
          "name": "_commit",
          "type": "bytes20"
        }
      ],
      "name": "hint",
      "outputs": [],
      "payable": false,
      "stateMutability": "nonpayable",
      "type": "function"
    },
    {
      "constant": false,
      "inputs": [
        {
          "name": "_content",
          "type": "bytes32"
        },
        {
          "name": "_url",
          "type": "string"
        }
      ],
      "name": "hintURL",
      "outputs": [],
      "payable": false,
      "stateMutability": "nonpayable",
      "type": "function"
    },
    {
      "constant": false,
      "inputs": [
        {
          "name": "_content",
          "type": "bytes32"
        }
      ],
      "name": "unhint",
      "outputs": [],
      "payable": false,
      "stateMutability": "nonpayable",
      "type": "function"
    }
  ],
  "bytecode": "0x608060405234801561001057600080fd5b506109e0806100206000396000f300608060405260043610610062576000357c0100000000000000000000000000000000000000000000000000000000900463ffffffff16806302f2008d146100675780632196ae0d146100de578063267b69221461016e5780637c8c664314610270575b600080fd5b34801561007357600080fd5b506100dc6004803603810190808035600019169060200190929190803590602001908201803590602001908080601f01602080910402602001604051908101604052809392919081815260200183838082843782019150505050505091929192905050506102a1565b005b3480156100ea57600080fd5b5061016c6004803603810190808035600019169060200190929190803590602001908201803590602001908080601f016020809104026020016040519081016040528093929190818152602001838380828437820191505050505050919291929080356bffffffffffffffffffffffff19169060200190929190505050610492565b005b34801561017a57600080fd5b5061019d6004803603810190808035600019169060200190929190505050610674565b6040518080602001846bffffffffffffffffffffffff19166bffffffffffffffffffffffff191681526020018373ffffffffffffffffffffffffffffffffffffffff1673ffffffffffffffffffffffffffffffffffffffff168152602001828103825285818151815260200191508051906020019080838360005b83811015610233578082015181840152602081019050610218565b50505050905090810190601f1680156102605780820380516001836020036101000a031916815260200191505b5094505050505060405180910390f35b34801561027c57600080fd5b5061029f600480360381019080803560001916906020019092919050505061076f565b005b816000806000836000191660001916815260200190815260200160002060020160009054906101000a900473ffffffffffffffffffffffffffffffffffffffff1673ffffffffffffffffffffffffffffffffffffffff161415801561036f57503373ffffffffffffffffffffffffffffffffffffffff16600080836000191660001916815260200190815260200160002060020160009054906101000a900473ffffffffffffffffffffffffffffffffffffffff1673ffffffffffffffffffffffffffffffffffffffff1614155b156103795761048d565b60606040519081016040528083815260200160006c01000000000000000000000000026bffffffffffffffffffffffff191681526020013373ffffffffffffffffffffffffffffffffffffffff16815250600080856000191660001916815260200190815260200160002060008201518160000190805190602001906104009291906108c7565b5060208201518160010160006101000a81548173ffffffffffffffffffffffffffffffffffffffff02191690836c010000000000000000000000009004021790555060408201518160020160006101000a81548173ffffffffffffffffffffffffffffffffffffffff021916908373ffffffffffffffffffffffffffffffffffffffff1602179055509050505b505050565b826000806000836000191660001916815260200190815260200160002060020160009054906101000a900473ffffffffffffffffffffffffffffffffffffffff1673ffffffffffffffffffffffffffffffffffffffff161415801561056057503373ffffffffffffffffffffffffffffffffffffffff16600080836000191660001916815260200190815260200160002060020160009054906101000a900473ffffffffffffffffffffffffffffffffffffffff1673ffffffffffffffffffffffffffffffffffffffff1614155b1561056a5761066e565b606060405190810160405280848152602001836bffffffffffffffffffffffff191681526020013373ffffffffffffffffffffffffffffffffffffffff16815250600080866000191660001916815260200190815260200160002060008201518160000190805190602001906105e19291906108c7565b5060208201518160010160006101000a81548173ffffffffffffffffffffffffffffffffffffffff02191690836c010000000000000000000000009004021790555060408201518160020160006101000a81548173ffffffffffffffffffffffffffffffffffffffff021916908373ffffffffffffffffffffffffffffffffffffffff1602179055509050505b50505050565b6000602052806000526040600020600091509050806000018054600181600116156101000203166002900480601f0160208091040260200160405190810160405280929190818152602001828054600181600116156101000203166002900480156107205780601f106106f557610100808354040283529160200191610720565b820191906000526020600020905b81548152906001019060200180831161070357829003601f168201915b5050505050908060010160009054906101000a90046c0100000000000000000000000002908060020160009054906101000a900473ffffffffffffffffffffffffffffffffffffffff16905083565b806000806000836000191660001916815260200190815260200160002060020160009054906101000a900473ffffffffffffffffffffffffffffffffffffffff1673ffffffffffffffffffffffffffffffffffffffff161415801561083d57503373ffffffffffffffffffffffffffffffffffffffff16600080836000191660001916815260200190815260200160002060020160009054906101000a900473ffffffffffffffffffffffffffffffffffffffff1673ffffffffffffffffffffffffffffffffffffffff1614155b15610847576108c3565b6000808360001916600019168152602001908152602001600020600080820160006108729190610947565b6001820160006101000a81549073ffffffffffffffffffffffffffffffffffffffff02191690556002820160006101000a81549073ffffffffffffffffffffffffffffffffffffffff021916905550505b5050565b828054600181600116156101000203166002900490600052602060002090601f016020900481019282601f1061090857805160ff1916838001178555610936565b82800160010185558215610936579182015b8281111561093557825182559160200191906001019061091a565b5b509050610943919061098f565b5090565b50805460018160011615610100020316600290046000825580601f1061096d575061098c565b601f01602090049060005260206000209081019061098b919061098f565b5b50565b6109b191905b808211156109ad576000816000905550600101610995565b5090565b905600a165627a7a72305820df69b684c8a1178349c371539adf08c54c4f7518c6848311ad7f998efe6f129c0029",
  "source": "//! Github Hinting contract.\n//!\n//! Copyright 2016 Gavin Wood, Parity Technologies Ltd.\n//!\n//! Licensed under the Apache License, Version 2.0 (the \"License\");\n//! you may not use this file except in compliance with the License.\n//! You may obtain a copy of the License at\n//!\n//!     http://www.apache.org/licenses/LICENSE-2.0\n//!\n//! Unless required by applicable law or agreed to in writing, software\n//! distributed under the License is distributed on an \"AS IS\" BASIS,\n//! WITHOUT WARRANTIES OR CONDITIONS OF ANY KIND, either express or implied.\n//! See the License for the specific language governing permissions and\n//! limitations under the License.\n\npragma solidity ^0.4.6;\n\n\ncontract GithubHint {\n\tstruct Entry {\n\t\tstring accountSlashRepo;\n\t\tbytes20 commit;\n\t\taddress owner;\n\t}\n\n\tmodifier whenEditAllowed(bytes32 _content) {\n\t\tif (entries[_content].owner != 0 && entries[_content].owner != msg.sender)\n\t\t\treturn;\n\t\t_;\n\t}\n\n\tfunction hint(bytes32 _content, string _accountSlashRepo, bytes20 _commit) whenEditAllowed(_content) public {\n\t\tentries[_content] = Entry(_accountSlashRepo, _commit, msg.sender);\n\t}\n\n\tfunction hintURL(bytes32 _content, string _url) whenEditAllowed(_content) public {\n\t\tentries[_content] = Entry(_url, 0, msg.sender);\n\t}\n\n\tfunction unhint(bytes32 _content) whenEditAllowed(_content) public {\n\t\tdelete entries[_content];\n\t}\n\n\tmapping (bytes32 => Entry) public entries;\n}\n",
  "sourcePath": "/home/sorpaas/repos/github-hint/contracts/GithubHint.sol",
  "compiler": {
    "name": "solc",
    "version": "0.4.23+commit.124ca40d.Emscripten.clang"
  },
  "schemaVersion": "2.0.0",
  "updatedAt": "2018-05-07T13:03:27.602Z"
}